{"abi":[{"type":"constructor","inputs":[{"name":"_token","type":"address","internalType":"address"}],"stateMutability":"nonpayable"},{"type":"function","name":"AMOUNT_PER_CLAINM","inputs":[],"outputs":[{"name":"","type":"uint256","internalType":"uint256"}],"stateMutability":"view"},{"type":"function","name":"claim","inputs":[],"outputs":[],"stateMutability":"nonpayable"},{"type":"function","name":"token","inputs":[],"outputs":[{"name":"","type":"address","internalType":"contract IERC20"}],"stateMutability":"view"},{"type":"function","name":"totalClaimedAmount","inputs":[],"outputs":[{"name":"","type":"uint256","internalType":"uint256"}],"stateMutability":"view"},{"type":"event","name":"TokenAirDropped","inputs":[{"name":"user","type":"address","indexed":true,"internalType":"address"},{"name":"amount","type":"uint256","indexed":false,"internalType":"uint256"}],"anonymous":false},{"type":"error","name":"SafeERC20FailedOperation","inputs":[{"name":"token","type":"address","internalType":"address"}]}],"bytecode":{"object":"0x608060405234801561000f575f80fd5b5060405161082e38038061082e83398181016040528101906100319190610142565b5f73ffffffffffffffffffffffffffffffffffffffff168173ffffffffffffffffffffffffffffffffffffffff160361009f576040517f08c379a0000000000000000000000000000000000000000000000000000000008152600401610096906101c7565b60405180910390fd5b805f806101000a81548173ffffffffffffffffffffffffffffffffffffffff021916908373ffffffffffffffffffffffffffffffffffffffff160217905550506101e5565b5f80fd5b5f73ffffffffffffffffffffffffffffffffffffffff82169050919050565b5f610111826100e8565b9050919050565b61012181610107565b811461012b575f80fd5b50565b5f8151905061013c81610118565b92915050565b5f60208284031215610157576101566100e4565b5b5f6101648482850161012e565b91505092915050565b5f82825260208201905092915050565b7f41697244726f703a20696e76616c6964206164647265737300000000000000005f82015250565b5f6101b160188361016d565b91506101bc8261017d565b602082019050919050565b5f6020820190508181035f8301526101de816101a5565b9050919050565b61063c806101f25f395ff3fe608060405234801561000f575f80fd5b506004361061004a575f3560e01c80634e71d92d1461004e5780639661cb0d14610058578063fc0c546a14610076578063fed98b1d14610094575b5f80fd5b6100566100b2565b005b6100606102cd565b60405161006d91906103e1565b60405180910390f35b61007e6102d3565b60405161008b9190610474565b60405180910390f35b61009c6102f6565b6040516100a991906103e1565b60405180910390f35b3273ffffffffffffffffffffffffffffffffffffffff163373ffffffffffffffffffffffffffffffffffffffff1614610120576040517f08c379a0000000000000000000000000000000000000000000000000000000008152600401610117906104e7565b60405180910390fd5b60015f3373ffffffffffffffffffffffffffffffffffffffff1673ffffffffffffffffffffffffffffffffffffffff1681526020019081526020015f205f9054906101000a900460ff16156101aa576040517f08c379a00000000000000000000000000000000000000000000000000000000081526004016101a19061054f565b60405180910390fd5b6001805f3373ffffffffffffffffffffffffffffffffffffffff1673ffffffffffffffffffffffffffffffffffffffff1681526020019081526020015f205f6101000a81548160ff021916908315150217905550610253303368056bc75e2d631000005f8054906101000a900473ffffffffffffffffffffffffffffffffffffffff1673ffffffffffffffffffffffffffffffffffffffff16610303909392919063ffffffff16565b68056bc75e2d6310000060025f82825461026d919061059a565b925050819055503373ffffffffffffffffffffffffffffffffffffffff167fad174f368bc27b44a13c676c128f81bcda1000d6bbeca62ba8a5a17d0a6be3a368056bc75e2d631000006040516102c391906103e1565b60405180910390a2565b60025481565b5f8054906101000a900473ffffffffffffffffffffffffffffffffffffffff1681565b68056bc75e2d6310000081565b610311848484846001610358565b61035257836040517f5274afe700000000000000000000000000000000000000000000000000000000815260040161034991906105ed565b60405180910390fd5b50505050565b5f806323b872dd60e01b9050604051815f525f1960601c87166004525f1960601c86166024528460445260205f60645f808c5af1925060015f511483166103b65783831516156103aa573d5f823e3d81fd5b5f883b113d1516831692505b806040525f606052505095945050505050565b5f819050919050565b6103db816103c9565b82525050565b5f6020820190506103f45f8301846103d2565b92915050565b5f73ffffffffffffffffffffffffffffffffffffffff82169050919050565b5f819050919050565b5f61043c610437610432846103fa565b610419565b6103fa565b9050919050565b5f61044d82610422565b9050919050565b5f61045e82610443565b9050919050565b61046e81610454565b82525050565b5f6020820190506104875f830184610465565b92915050565b5f82825260208201905092915050565b7f41697244726f703a206e6f7420454f41000000000000000000000000000000005f82015250565b5f6104d160108361048d565b91506104dc8261049d565b602082019050919050565b5f6020820190508181035f8301526104fe816104c5565b9050919050565b7f41697244726f703a20616c726561647920636c61696d656400000000000000005f82015250565b5f61053960188361048d565b915061054482610505565b602082019050919050565b5f6020820190508181035f8301526105668161052d565b9050919050565b7f4e487b71000000000000000000000000000000000000000000000000000000005f52601160045260245ffd5b5f6105a4826103c9565b91506105af836103c9565b92508282019050808211156105c7576105c661056d565b5b92915050565b5f6105d7826103fa565b9050919050565b6105e7816105cd565b82525050565b5f6020820190506106005f8301846105de565b9291505056fea2646970667358221220aa063f6660177fab3472c9b6867af62e61313bdbb79a791002ad328dce82c5ad64736f6c634300081a0033","linkReferences":{}},"methodIdentifiers":{"AMOUNT_PER_CLAINM()":"fed98b1d","claim()":"4e71d92d","token()":"fc0c546a","totalClaimedAmount()":"9661cb0d"},"id":34}